:100000000C9448000C9470000C9470000C947000D8
:100010000C9470000C9470000C9470000C947000A0
:100020000C9470000C9470000C9470000C94700090
:100030000C9470000C9470000C9470000C94700080
:100040000C9451030C9470000C94F1010C94230255
:100050000C9470000C9470000C9470000C94700060
:100060000C9470000C9470000C9470000C94700050
:100070000C9470000C9470000C9480020C94B202EA
:100080000C9470000C9470000C9470005302E20207
:1000900011241FBECFEFD0E1DEBFCDBF11E0A0E045
:1000A000B1E0EAEEF7E002C005900D92A031B10791
:1000B000D9F722E0A0E1B1E001C01D92A335B2075B
:1000C000E1F710E0C8E4D0E004C02197FE010E94EF
:1000D000ED03C634D107C9F70E9442030C94F30321
:1000E0000C94000026E040E052EC61E070E08DEA04
:1000F00091E00E94910126E040E052EC61E070E066
:1001000080E191E00C9491018DEA91E00E94BA00A7
:100110001816190644F080E191E00E94BA00181602
:100120001906ECF008958DEA91E00E94BA001816C5
:1001300019068CF78DEA91E00E94D400682F80E1C7
:1001400091E00E943A03EFCF80E191E00E94D40059
:100150008A3269F46AE18DEA91E00E943A0380E113
:1001600091E00E94BA001816190674F302C0682FB5
:10017000F2CF0895FC01918D228D892F90E0805C53
:100180009F4F821B91098F7399270895FC01918DD0
:10019000828D981731F0828DE80FF11D858D90E0EA
:1001A00008958FEF9FEF0895FC01918D828D981730
:1001B00061F0828DDF01A80FB11D5D968C91928D4B
:1001C0009F5F9F73928F90E008958FEF9FEF089548
:1001D00089E492E0892B41F080E090E0892B21F0C6
:1001E0000E94490281110DC088ED92E0892B71F0C7
:1001F00080E090E0892B51F00E94D802811104C068
:1002000008950E940000F0CF0C9400000895FC01B6
:10021000848DDF01A80FB11DA35ABF4F2C91848D8F
:1002200090E001968F739927848FA689B7892C93C4
:10023000A089B1898C9180648C93938D848D98135F
:1002400006C00288F389E02D80818F7D8083089528
:10025000CF93DF93EC01888D8823C9F0EA89FB896D
:10026000808185FD05C0A889B9898C9186FD0FC064
:100270000FB607FCF5CF808185FFF2CFA889B98939
:100280008C9185FFEDCFCE010E940701E7CFDF9172
:10029000CF910895EF92FF920F931F93CF93DF9327
:1002A000EC0181E0888F9B8D8C8D981305C0E889C7
:1002B000F989808185FD24C0F62E0B8D10E00F5F3B
:1002C0001F4F0F731127E02E8C8DE8120CC00FB654
:1002D00007FCFACFE889F989808185FFF5CFCE0147
:1002E0000E940701F1CF8B8DFE01E80FF11DE35A4B
:1002F000FF4FF0820B8FEA89FB898081806207C003
:10030000EE89FF896083E889F98980818064808330
:1003100081E090E0DF91CF911F910F91FF90EF90DE
:100320000895CF92DF92EF92FF921F93CF93DF93C6
:10033000EC016A017B01122F60E874E88EE190E025
:10034000A70196010E94CB03DA01C9010197A10917
:10035000B109B695A79597958795AC01E889F98974
:1003600082E08083411580E15807A8F0E889F98987
:10037000108260E472E48FE090E0A70196010E9491
:10038000CB03BA01A9014150510961097109769560
:10039000679557954795EC85FD855083EE85FF85DC
:1003A0004083188EEC89FD891083EA89FB8980815E
:1003B00080618083EA89FB89808188608083EA8903
:1003C000FB89808180688083EA89FB8980818F7DB9
:1003D0008083DF91CF911F91FF90EF90DF90CF90BE
:1003E00008951F920F920FB60F9211242F938F939F
:1003F0009F93EF93FF93E0912001F0912101808181
:10040000E0912601F091270182FD12C09081809138
:1004100029018F5F8F7320912A01821751F0E0919B
:100420002901F0E0E05FFE4F958F8093290101C024
:100430008081FF91EF919F918F912F910F900FBE2F
:100440000F901F9018951F920F920FB60F921124C4
:100450002F933F934F935F936F937F938F939F93CC
:10046000AF93BF93EF93FF9380E191E00E94070168
:10047000FF91EF91BF91AF919F918F917F916F917C
:100480005F914F913F912F910F900FBE0F901F9052
:10049000189580E191E00E94BA0021E0892B09F4CF
:1004A00020E0822F0895E0E1F1E01382128288EECD
:1004B00093E0A0E0B0E084839583A683B78384E0D3
:1004C00091E09183808380E990E09587848789E239
:1004D00090E0978786878BE290E0918B808B8AE211
:1004E00090E0938B828B85E990E0958B848B8CE2F6
:1004F00090E0978B868B118E128E138E148E08953A
:100500001F920F920FB60F9211242F938F939F93E8
:10051000EF93FF93E091BD01F091BE018081E091E6
:10052000C301F091C40182FD12C090818091C60187
:100530008F5F8F732091C701821751F0E091C60140
:10054000F0E0E355FE4F958F8093C60101C0808196
:10055000FF91EF919F918F912F910F900FBE0F9070
:100560001F9018951F920F920FB60F9211242F9380
:100570003F934F935F936F937F938F939F93AF932B
:10058000BF93EF93FF938DEA91E00E940701FF91E3
:10059000EF91BF91AF919F918F917F916F915F91FB
:1005A0004F913F912F910F900FBE0F901F90189574
:1005B0008DEA91E00E94BA0021E0892B09F420E045
:1005C000822F0895EDEAF1E01382128288EE93E023
:1005D000A0E0B0E084839583A683B78384E091E0B4
:1005E0009183808388E990E09587848789E990E00A
:1005F000978786878BE990E0918B808B8AE990E0E2
:10060000938B828B8DE990E0958B848B8CE990E0C5
:10061000978B868B118E128E138E148E0895CF9227
:10062000DF92EF92FF920F931F93CF93DF936C01B2
:100630007A018B01C0E0D0E0CE15DF0589F0D8014A
:100640006D918D01D601ED91FC910190F081E02D2D
:10065000C6010995892B11F47E0102C02196ECCFC9
:10066000C701DF91CF911F910F91FF90EF90DF9025
:10067000CF900895DC01ED91FC910190F081E02D87
:10068000099408950E949B030E9441030E947200F6
:10069000C8EED0E00E9484002097E1F30E94E800B9
:1006A000F9CF1F920F920FB60F9211242F933F9301
:1006B0008F939F93AF93BF9380914B0290914C0285
:1006C000A0914D02B0914E0230914A0226E0230FD4
:1006D0002D3720F40296A11DB11D05C029E8230F76
:1006E0000396A11DB11D20934A0280934B02909363
:1006F0004C02A0934D02B0934E0280914F02909114
:100700005002A0915102B09152020196A11DB11D5B
:1007100080934F0290935002A0935102B0935202E3
:10072000BF91AF919F918F913F912F910F900FBEED
:100730000F901F901895789483B7806483BF83B718
:10074000886083BF83B7846083BF87B7816087BFBA
:100750001EBC8EB582608EBD8EB581608EBD8FB59C
:1007600081608FBD85B5846085BD85B5806485BD9C
:10077000EAE8F0E08081826080838081816080830C
:10078000EBE8F0E0808181608083329A319A309882
:10079000379A1AB80895A1E21A2EAA1BBB1BFD01B5
:1007A0000DC0AA1FBB1FEE1FFF1FA217B307E40750
:1007B000F50720F0A21BB30BE40BF50B661F771FA8
:1007C000881F991F1A9469F7609570958095909588
:1007D0009B01AC01BD01CF010895EE0FFF1F0590F5
:0A07E000F491E02D0994F894FFCF86
:1007EA00000000004A010F03BA00D400C600280125
:10FC000001C0E1C011248FEF90E19EBF8DBF84B78A
:10FC1000882349F0982F9A70923029F081FF02C012
:10FC200097EF94BF01D185E08EBD82E08BB988E16A
:10FC30008AB986E08093950089E189B98EE0E1D0A8
:10FC4000BD9A84E048E15EEF34E020E25DBD4CBD4A
:10FC500036BF06B602FEFDCF98B3922798BBA89593
:10FC60008150A1F7C0E0D0E0C5D0813469F4C2D0A2
:10FC7000182FCBD0123809F49CC0113811F486E04B
:10FC800001C083E0B3D09CC0823411F484E103C08E
:10FC9000853419F485E0C1D093C0853541F4AAD0EC
:10FCA000C82FA8D0D0E0D82BCC0FDD1F88C0863558
:10FCB00021F484E0B2D080E0E5CF843609F04DC075
:10FCC00099D0082F10E0102F002794D0082B92D045
:10FCD000B82E7801C12CDD24D3948CD0F601819309
:10FCE0006F01F1E0EF1AF108C1F78FD085E4B81287
:10FCF00012C06801D3947E0100E011E0C016D10665
:10FD000009F45EC0F80161918F01C7019BD0FFEF3C
:10FD1000EF1AFF0AF3CF40E050E063E0CE0153D08A
:10FD20006E01E12CFF24F394F7014081818150E0C2
:10FD3000582B61E0C60147D0F2E0CF0ED11C025033
:10FD4000110982E0E80EF11C0115110569F740E088
:10FD500050E065E0CE0137D033C0843719F54AD082
:10FD6000082F10E0102F002745D0082B43D0F82E85
:10FD70004CD0E5E4FE120DC07E01C7015BD036D049
:10FD800001501109FFEFEF1AFF0A01151105A9F73C
:10FD900017C07E01F70185917F0128D0015011091C
:10FDA000C9F70EC0853739F430D08EE11FD086E90F
:10FDB0001DD082E067CF813511F488E022D025D0B4
:10FDC00080E114D051CFFC010A0160936800E895EE
:10FDD00011248091680080FDFCCF667031F0452BC6
:10FDE00021F481E180936800E89508955D9BFECF42
:10FDF0008CB908955F9BFECF5C9901C0A8958CB12A
:10FE0000089598E191BD81BD0895F4DF803219F025
:10FE100088E0F7DFFFCF84E1E9CFCF93C82FEADF97
:10FE2000C150E9F7CF91F1CF282E80E0EADFE0E082
:10FE3000FF270994E199FECF9FBB8EBBE09A9927DB
:10FE40008DB30895262FE199FECF9FBB8EBB2DBBAE
:0EFE50000FB6F894E29AE19A0FBE019608955B
:02FFFE000206F9
:040000030000FC00FD
:00000001FF
